:020000040800F2
:10000000B00E0020050100080D3A0008A9330008D1
:10001000DD3900081D0600085546000800000000F4
:100020000000000000000000000000004D3E00083D
:10003000850A000800000000613A0008353F00080A
:100040001F0100081F0100081F0100081F01000810
:100050001F0100081F0100081F0100081F01000800
:100060001F0100081F0100081F0100081F010008F0
:100070001F0100081F0100081F010008390A0008BD
:10008000490A00081F0100081F0100081F0100089D
:100090001F0100081F0100081F0100081F010008C0
:1000A0001D4000084D4000083D4000082D4000085C
:1000B0005D4000086D4000081F0100081F01000896
:1000C0001F0100081F0100081F0100081F01000890
:1000D0001F01000835460008454600081F010008BA
:1000E0001F0100081F0100081F010008DFF810D0E1
:1000F00000F03CF80048004777460008AFF3008066
:10010000B00E00200648804706480047FEE7FEE79D
:10011000FEE7FEE7FEE7FEE7FEE7FEE7FEE7FEE7B7
:10012000C53F0008ED000008202A04DB203A21FA30
:1001300002F00021704721FA02F3D040C2F1200200
:100140009140084319467047D2B201E000F8012BF4
:10015000491EFBD270470022F6E710B513460A4647
:1001600004461946FFF7F0FF204610BD064C074D28
:1001700006E0E06840F0010394E807009847103477
:10018000AC42F6D3FFF7B6FFC8460008E8460008C1
:1001900070B58C1810F8015B15F0070301D110F849
:1001A000013B2A1106D110F8012B03E010F8016B76
:1001B00001F8016B5B1EF9D12B0705D40023521EF9
:1001C0000DD401F8013BFAE710F8013BCB1A921C61
:1001D00003E013F8015B01F8015B521EF9D5A1425F
:1001E000D8D3002070BD0000002000BF0CE000EB61
:1001F0008001074A515C012904D100EB8002044BC5
:100200001A445170411CC8B21828F0DD7047000034
:100210003801002010B50446204600F0D7FA10BD82
:1002200030B500210023024600EBD2746410A0EB2D
:100230004404E1B2012905D1421C02EBD274C4F39B
:10024000470304E0024600EBD274C4F347034A1CA0
:1002500003EB8304014D2C44E27030BD38010020D3
:1002600010B50024BD48007830B1012871D00228B3
:1002700070D003286FD1EAE003F098F8B84908601D
:100280000120B849087086E0B6480078182844DC98
:10029000B3480068B3490978405CB349B14A127861
:1002A00088540846AF490978405C01281ED1AD4901
:1002B000097801EB8101AD4A50540320A749087029
:1002C000A848007800EB800011460844007920B966
:1002D0000121A448007800F001FC0120A14909781F
:1002E00001EB8101A14A114408714FE09D4800785B
:1002F00000EB80009D4908440079012804D10021C9
:100300009848007800F0EAFB00209649097801EB54
:100310008101964A1144087138E092480078192802
:1003200009D18F4800688F490978405C012802D1C3
:10033000FFF75AFF2AE08B4800781B280CD1884829
:10034000006888490978405C012805D103F054FD14
:100350001CE031E077E0FEE0824800781A2809D1FD
:100360007F4800687F490978405C012802D103F08A
:1003700037FB0BE07B4800781D2806D178480068E1
:1003800078490978405C012800D000BF75480078A2
:10039000401C744908707348007820287FF774AFB8
:1003A00000F03EFA7249088008460088002802DD05
:1003B00001206A490870CEE000F010FD6D49086028
:1003C00008460068008806282ED108460068408844
:1003D0006949488067480068808888800846408866
:1003E0001C2815D006DC192809D01A280AD01B2889
:1003F00019D10AE01F280ED0902814D10EE0FFF783
:10040000F3FE10E003F0ECFA0DE003F0F5FC0AE077
:1004100003F0B0FE07E003F017FB04E056498888BC
:10042000FFF7FEFE00BF07E000F0D4FC5349086070
:100430000846006800F040FC00204F494880888052
:100440004649087087E000204449087083E04C4822
:1004500000684C49086003F00BFC494800684A49B1
:1004600008600846006847490968401A474908601B
:1004700001203C49087066E03A48007800EB8000B3
:100480003A49085C012854D13648007800EB8000D6
:1004900008444078012807D03248007800EB8000FB
:1004A0000844807801282CD10020394908702D4853
:1004B000007800EB80002D490844407801280BD1DA
:1004C0002848007800EB80000A461044C17825488F
:1004D000007802F061FF31E02E48007828B9002151
:1004E0002048007802F058FF28E01E48007800EB12
:1004F00080001E4A1044C1781A48007802F04CFF70
:100500001CE05020FFF786FE2248007828B9002121
:100510001448007802F040FF10E01248007800EB29
:100520008000124A1044C1780E48007802F034FF6F
:1005300004E000210B48007802F02EFF0948007803
:10054000401C0849087007480078182894DD0020EE
:100550000249087000BF00BF10BD0000000000206D
:100560000400002008000020B50100203801002010
:100570000C00002010000020140000201C000020AF
:10058000240000203000002034000020380000202B
:100590000B0000200A00002010B500F0A1F9164859
:1005A00002F0D8F9154802F0D5F90222144915488D
:1005B00002F038FD1E221449124802F007FE0A23F9
:1005C00002221249124802F096FD012011490870DA
:1005D0000CE001200F49097801EB81010E4A11441A
:1005E000C8700C480078401C0A4908700948007817
:1005F0001828EEDD10BD0000C80800200809002002
:100600006A000020C80900206C0000208A00002039
:1006100088090020080000203801002000BFFEE704
:1006200010B50122D102064801F000F800F034FABA
:1006300000224FF40061024800F0F8FF10BD0000F6
:100640000008014010B50446212C19D2DFE804F05F
:10065000B411191E23282D32373C41464B50555AB0
:100660005F64696E73787D82878C91969BA0A5AA42
:10067000AF004FF40071524800F0D0FF51490870AC
:100680009AE00121504800F0C9FF95E001214E4851
:1006900000F0C4FF90E001214B4800F0BFFF8BE069
:1006A0000121494800F0BAFF86E00121464800F0E8
:1006B000B5FF81E00121444800F0B0FF7CE001215A
:1006C000414800F0ABFF77E001213F4800F0A6FF72
:1006D00072E001213C4800F0A1FF6DE001213A48A1
:1006E00000F09CFF68E00121374800F097FF63E0CD
:1006F0000121354800F092FF5EE00121324800F010
:100700008DFF59E00121304800F088FF54E00121BD
:100710002D4800F083FF4FE001212B4800F07EFFC1
:100720004AE00121284800F079FF45E001212648F0
:1007300000F074FF40E00121234800F06FFF3BE030
:100740000121214800F06AFF36E001211E4800F037
:1007500065FF31E001211C4800F060FF2CE0012121
:10076000194800F05BFF27E00121174800F056FF11
:1007700022E00121144800F051FF1DE00121124840
:1007800000F04CFF18E001210F4800F047FF13E094
:1007900001210D4800F042FF0EE001210A4800F05F
:1007A0003DFF09E00121084800F038FF04E0012185
:1007B000054800F033FF00BF00BF0248007810BDBD
:1007C000000C0140D2000020000801407CB5054625
:1007D0000020009001900024A5208DF800005A20F0
:1007E0008DF8010003208DF8020080208DF80300B1
:1007F00002208DF80400E8B28DF8050000BF09E082
:100800000DEB04010122054802F0E0FC00F03BF989
:10081000601CC4B2062CF3DB7CBD000088090020FC
:1008200010B5002027490968088002F0FDFC254921
:100830000860084600680088062810D1084600684D
:100840000088214908801F480068408848801D486A
:1008500000688088888001201C4908702DE00120F4
:100860001B4908701748006800881A490880154815
:1008700000680078184908701248006840881549D7
:10088000488001201549087011E00E48016813489E
:100890000078401C31F810100E4A10480078401CB7
:1008A00022F810100D480078401C0C4908700B48C5
:1008B0000078094909788842E7DD02480068008825
:1008C00010BD0000F4000020FA000020000100200C
:1008D000010100203003002002010020030100205C
:1008E00010B502F04DFD6420FFF770FF10BD000051
:1008F00010B5A520224908700122224802F066FCAA
:10090000012000F017FC5A201D49087001221D48E3
:1009100002F05CFC012000F00DFC04201849087076
:100920000122184802F052FC012000F003FC802054
:10093000134908700122134802F048FC012000F01E
:10094000F9FB03200E49087001220E4802F03EFC1C
:10095000012000F0EFFB002009490870012209483E
:1009600002F034FC012000F0E5FB0320044908708C
:100970000122044802F02AFC012000F0DBFB10BD3C
:10098000040100208809002010B50446A0780D4914
:10099000087060780C49087020780C490870084687
:1009A00001784FF4806000F013F8074801784FF4A5
:1009B000826000F00DF8034801784FF4846000F085
:1009C00007F810BDF2000020F1000020F000002028
:1009D0002DE9FC4704460D46E7B2C4F3072805F0AD
:1009E000FF09C5F3072A0020009001900026A520EA
:1009F0008DF800005A208DF8010005208DF80200C6
:100A000082208DF803008DF804808DF805708DF834
:100A100006A08DF8079000BF08E008226946054847
:100A200002F0D4FB00F02FF8701CC6B2082EF4DBE5
:100A3000BDE8FC878809002010B5024800F02AFABA
:100A400010BD0000080A002010B5024800F022FA8C
:100A500010BD00004C0A002030B590F84050012431
:100A6000AC40C56B6C60046863604468102C04D1B2
:100A70000468A2600468E16003E00468A16004689F
:100A8000E26030BD7047002000BF01E0411C88B229
:100A9000B0F5FA5FFADB7047002000BF01E0411CAF
:100AA00088B21428FBDB704710B5FFF721FF10BD9B
:100AB00008B500F00DFC0020054908600548886075
:100AC0000120C8606946024800F048FB08BD0000EC
:100AD00050080020009C01087047000010B500EB92
:100AE000C002194B1A44517000EB8002174B1A4494
:100AF000D27800EBC003144C23449A70144A127845
:100B000000EBC0032344DA70114A527800EBC003B3
:100B100023441A710E4A927800EBC00323445A71A1
:100B20000B4AD27800EBC00323449A71084A127929
:100B300000EBC0032344DA71054A527900EBC0038D
:100B400023441A7210BD00002E020020380100203C
:100B5000630000200021074AD1610749096941F07B
:100B60000401054A11611146096941F04001116112
:100B700070470000900A0020002002400021074A30
:100B8000D1610749096941F00201054A1161114625
:100B90004861096941F0400111617047900A0020E5
:100BA000002002400022054BDA61054A126942F03A
:100BB0000102034B1A61018070470000900A002077
:100BC0000020024000201E49C96801F0100139B11F
:100BD0001C49C96941F002011A4AD16140F0100074
:100BE0001749C96801F0040139B11649C96941F0D2
:100BF0000101144AD16140F004001149C96901F0B2
:100C0000010169B10F49C96941F004010D4AD1617F
:100C100000BF0B49C96921F00101094AD16100BF38
:100C200000BF40F20111884206D10549C96921F08F
:100C30000101034AD16101E00149C86000BF70476A
:100C400000200240900A002070B5044600F0F4FC39
:100C5000054609E0601C38B124B100F0EDFC401BF2
:100C6000A04201D9032070BD1248C06800F0010005
:100C70000028EFD10F48C06800F0200020B100BF6D
:100C800020200C49C86000BF0A48C06800F010006E
:100C900048B90848C06900F0010020B90548C0689B
:100CA00000F0040018B1FFF78DFF0120DBE7002002
:100CB000D9E700000020024070B5044620783F4983
:100CC000087060883E4908800846008802F098FB5A
:100CD0003C49086002203C49087030E03A480078FE
:100CE00014F810003949087037480078401C34F86F
:100CF00010003749097824F8110033480078401C67
:100D000034F810004FF6FF7101EA002030490978ED
:100D100024F811002E48007834F810002B49097887
:100D200008432B49097824F8110029480078401C11
:100D30002749087024480078801C234908702248FD
:100D400001781E480078801C8142C7DB204800786B
:100D50001A49087003F0BEF8FFF7AAFE00F0B8FACF
:100D600000201949087018E0322000F0E3F9164815
:100D70000078801C34F8105012480068124A12782B
:100D8000022303FB02012A460023012000F048FA57
:100D90000D480078401C0C4908700849087800EBA1
:100DA000D071012202EB6101074A12789142DBDC2B
:100DB00003F05EF800F02AFA70BD00001001002078
:100DC00012010020140100201C0100202501002038
:100DD000240100200048704730030020004870477D
:100DE000FA00002070B50446002594F8210002287E
:100DF00003D00420A063012548E02068006820F0AB
:100E00000E00216808602068006820F00100216859
:100E100008601F492068884201D1012026E01C4952
:100E200014312068884201D110201FE01849283170
:100E30002068884201D1801518E015493C312068AE
:100E4000884201D1801411E0114950312068884254
:100E500002D14FF4803009E00D49643120688842A6
:100E600002D14FF4801001E04FF08070084908393A
:100E70004860012084F8210000BF002084F8200091
:100E800000BF606B10B12046616B8847284670BD7B
:100E90000800024070B50446E06B056820680668EB
:100EA00094F84010042088402840002846D006F0DE
:100EB0000400002842D02068006800F0200028B913
:100EC0002068006820F00400216808605749206805
:100ED000884201D1042027E0544914312068884217
:100EE00001D1402020E0514928312068884201D1B9
:100EF000001519E04D493C312068884202D14FF479
:100F0000804011E0494950312068884202D14FF4B5
:100F1000802009E0454964312068884202D14FF4BD
:100F2000800001E04FF08060404908394860E06A85
:100F300000287AD02046E16A884776E094F840108D
:100F4000022088402840A0B306F0020088B3206841
:100F5000006800F0200040B92068006820F00A0016
:100F600021680860012084F8210030492068884207
:100F700001D1022028E02D4914312068884201D196
:100F8000202021E0294928312068884201D14015DC
:100F90001AE026493C312068884202D14FF40050C3
:100FA00012E0224950312068884203D14FF40030CA
:100FB0000AE017E01D4964312068884202D14FF4ED
:100FC000001001E04FF0007018490839486000BF78
:100FD000002084F8200000BFA06A30B32046A16A38
:100FE000884722E094F84010082088402840E0B16B
:100FF00006F00800C8B12068006820F00E002168E3
:10100000086094F8401001208840E16B486001209E
:10101000A06384F8210000BF002084F8200000BFF6
:10102000206B10B12046216B884770BD080002403C
:101030000146002209B901207047164B0868C01A02
:101040001423B0FBF3F08000086412480838C8632A
:10105000022081F821000868026843F6F07082439C
:10106000D1E901031843CB6818430B6918434B6956
:1010700018438B691843CB69184302430868026020
:1010800000208863012081F82100002081F82000E1
:1010900000BFD1E7080002402DE9F04104460D46AB
:1010A00016461F464FF0000800BF94F820000128A4
:1010B00002D10220BDE8F081012084F8200000BFA9
:1010C00094F8210001282CD1022084F8210000206E
:1010D000A0632068006820F00100216808603B469A
:1010E000324629462046FFF7B7FCE06A30B1206857
:1010F000006840F00E00216808600BE0206800687E
:1011000020F00400216808602068006840F00A00B0
:10111000216808602068006840F0010021680860CC
:1011200006E000BF002084F8200000BF4FF0020856
:101130004046BFE770B5044600F07EFA06462546F5
:10114000681C10B104480078054400BF00F074FA30
:10115000801BA842FAD370BD300100202DE9F04178
:1011600004460E460127002500BF2648007E0128C0
:1011700002D10220BDE8F08101202249087600BF9B
:101180002068022813D14CF25030FFF75DFD90BB70
:101190000120FFF7DFFC4CF25030FFF755FD07460A
:1011A0001948006920F004001749086123E04CF257
:1011B0005030FFF749FDF0B94FF0FF303060A568BF
:1011C00012E02846FFF7DAFC4CF25030FFF73CFD06
:1011D00007460D48006920F002000B4908610FB175
:1011E000356007E005F58065D4E9021001EB802049
:1011F000A842E6D800BF00BF00200249087600BF21
:101200003846B7E7900A00200020024003480069F2
:1012100040F0800001490861002070470020024032
:101220002DE9FE4F05468B461746984601260024B9
:101230000020029000BF2448007E012802D1022035
:10124000BDE8FE8F01202049087600BF4CF25030E7
:10125000FFF7FAFC064686BB012D02D10120029061
:1012600006E0022D02D10220029001E0042002904B
:1012700000241EE02201B946C24648465146FEF708
:1012800053FF80B20190022000FB04B0009001994E
:10129000FFF788FC4CF25030FFF7D6FC06460B48AF
:1012A000006920F001000949086106B104E0601CF2
:1012B000C4B202988442DDDB00BF00BF00200249B7
:1012C000087600BF3046BBE7900A002000200240AD
:1012D00000200849096901F0800151B10649054A19
:1012E0005160064951601146096901F0800101B160
:1012F000012070470020024023016745AB89EFCDF4
:101300002DE9F847034600240020002584460027E5
:1013100000226EE14FF0010808FA02F4D1F80080D3
:1013200008EA0400A0427DD1DFF8D0A2D1F8048001
:10133000A8EB0A09D0453AD014DCB8F1030F50D01D
:1013400009DCB8F1000F31D0B8F1010F1CD0B8F1B1
:10135000020F49D120E0B8F1110F18D0B8F1120FE7
:1013600042D11EE0B9F5881F25D006DCB9F5803FD3
:1013700020D0B9F5801F37D11AE0B9F5001F18D079
:10138000B9F5041F30D117E0D1F80CC02DE0D1F829
:101390000C8008F1040C28E0D1F80C8008F1080C4E
:1013A00023E0D1F80C8008F10C0C1EE000BF00BF58
:1013B00000BF00BF00BF00BFD1F80880B8F1000F28
:1013C00002D14FF0040C0BE0D1F80880B8F1010F06
:1013D00003D14FF0080C1C6102E04FF0080C5C6177
:1013E00003E04FF0000C00E000BF00BFFF2801D871
:1013F000984601E003F104084646FF2802D84FEA68
:10140000820803E0A2F108084FEA88084746D6F8A8
:1014100000804FF00F0909FA07F928EA09080CFAC9
:1014200007F900E088E048EA0908C6F80080D1F82A
:10143000048008F08058B8F1805F7DD100BFDFF8EC
:10144000C081D8F8188048F00108DFF8B491C9F8D5
:101450001880C846D8F8188008F00108CDF8008038
:1014600000BF00BF4FEAB9384FEA920958F8295037
:101470004FEA82784FEA18794FF00F0808FA09F816
:1014800025EA0805DFF87C81434502D14FF00008CA
:1014900016E0DFF87481434502D14FF001080FE0F8
:1014A000DFF86881434502D14FF0020808E0DFF819
:1014B0006081434502D14FF0030801E04FF004087A
:1014C0004FEA82794FEA197908FA09F848EA0505DE
:1014D000DFF840814FEA920948F82950D1F804809A
:1014E00008F48038B8F5803F0AD1DFF82C81D8F8AD
:1014F000008048EA0008DFF82091C9F8008009E080
:10150000DFF81481D8F8008028EA0008DFF8089195
:10151000C9F80080D1F8048008F40038B8F5003F1D
:1015200010D1DFF8F48008F10408D8F8008048EA08
:101530000008DFF8E49000E05AE009F10409C9F876
:1015400000800DE0DFF8D08008F10408D8F80080B2
:1015500028EA0008DFF8C09009F10409C9F8008002
:10156000D1F8048008F48018B8F5801F0ED1DFF898
:10157000A88008F10808D8F8008048EA0008DFF8D9
:10158000989009F10809C9F800800DE0DFF888801B
:1015900008F10808D8F8008028EA0008DFF87890F9
:1015A00009F10809C9F80080D1F8048008F400188E
:1015B000B8F5001F0ED1DFF8608008F10C08D8F8EC
:1015C000008048EA0008DFF8509009F10C09C9F8DA
:1015D00000800DE0DFF8408008F10C08D8F80080AA
:1015E00028EA0008DFF8309009F10C09C9F80080FA
:1015F000521C102AFFF48EAEBDE8F88700001110CF
:101600000010024000080140000C014000100140A1
:1016100000140140080001400004014002469368A4
:101620000B400BB1012000E0002070470AB10161BE
:1016300001E00B0403617047014800687047000037
:101640002801002070B50446002600250CB90120B1
:1016500070BD94F83D0028B9002084F83C00204675
:1016600000F0AEF8242084F83D002068006820F0E7
:1016700001002168086000F0CBFB05464C4960681A
:10168000884206D84B48854201D2012007E000205D
:1016900005E04948854201D2012000E000200128F0
:1016A00000D1D5E74548B5FBF0F6206846604049D3
:1016B0006068884201D8701C07E04FF49670704350
:1016C0004FF47A71B0FBF1F0401C21680862384990
:1016D0006068884214D8681E61684900B0FBF1F068
:1016E000401CC0F30B00042801D204203DE0681E1A
:1016F00061684900B0FBF1F0401CC0F30B0034E01E
:10170000A06838B9681E616801EB4101B0FBF1F0D7
:10171000401C0AE0681E616801EBC10202EB011186
:10172000B0FBF1F0401C40F48040C0F30B0008B95E
:1017300001201AE0A06848B9681E616801EB410108
:10174000B0FBF1F0401CC0F30B000CE0681E6168B8
:1017500001EBC10202EB0111B0FBF1F0401CC0F340
:101760000B0040F4804040F400402168C861D4E997
:101770000701084321680860D4E903100843216881
:101780008860D4E9050108432168C86020680068C2
:1017900040F001002168086000202064202084F8C7
:1017A0003D000020206384F83E0000BF50E70000A9
:1017B000A086010080841E0000093D0040420F0009
:1017C00010B586B004460020029003900490059066
:1017D00016492068884226D100BF1548806940F02C
:1017E0000800134988610846806900F008000190EC
:1017F00000BF00BF4FF4406002901220039003200E
:10180000059002A90B48FFF77BFD00BF0848C0699F
:1018100040F480000649C8610846C06900F48000B1
:10182000019000BF00BF06B010BD0000005800408E
:1018300000100240000C0140034800680349097889
:101840000844014908607047280100203001002049
:1018500010B50848006840F01000064908600320F1
:1018600000F0A6F8002000F007F800F02BF80020A8
:1018700010BD00000020024070B504460E480078FC
:101880004FF47A71B1FBF0F00C490968B1FBF0F547
:10189000284600F085FF08B1012070BD102C07D24A
:1018A00000222146501E00F044F80548046001E083
:1018B0000120F2E70020F0E7300100203401002091
:1018C0002C01002008B500BF1148806940F00100DC
:1018D0000F4988610846806900F00100009000BF50
:1018E00000BF00BF0846C06940F08050C86108468C
:1018F000C06900F08050009000BF00BF00BF0549E4
:10190000486820F0E06040F00070486000BF08BD0B
:10191000001002400000014000BF00F01F02012142
:1019200091404209920002F1E022C2F8001100BF8A
:1019300070472DE9F05F80460D461646002702F0FD
:1019400067F8074639462A46334601F00700C0F1DA
:10195000070ABAF1040F02D94FF0040A01E0C0F1FE
:10196000070AD14600F1040ABAF1070F02D24FF07C
:10197000000A01E0A0F1030AD4464FF0010A0AFA76
:1019800009FAAAF1010A0AEA020A0AFA0CFA4FF065
:10199000010B0BFA0CFBABF1010B0BEA030B4AEA50
:1019A0000B042146404602F03BF8BDE8F09F0000E2
:1019B00000BF00F00702064B19684FF6FF031940FD
:1019C000044B0B4343EA0221014B196000BF7047EF
:1019D0000CED00E00000FA050120014908627047A3
:1019E00000000E422DE9F04385B006463DA30FCB23
:1019F00001AC0FC43FA0006800904FF00008002524
:101A000000270024A146012E30D0022E58D0102EDF
:101A100061D139484468006800F0807000B301A8C3
:101A2000C4F38341475C04F4803070B132484068AD
:101A3000C0F340401DF8008004F4803040B12F48CE
:101A4000B0FBF8F000FB07F502E02D4807FB00F5BE
:101A50002948406800F48000B0F5800F01D1A94604
:101A600003E068000321B0FBF1F935E02248046A85
:101A700004F44070B0F5807F05D104F0020010B18D
:101A80004FF400491BE004F44070B0F5007F07D12B
:101A90001948406A00F0020010B149F640490EE0D2
:101AA00004F44070B0F5407F07D11348006800F49B
:101AB000003010B14FF2244901E04FF000090BE073
:101AC00000F0B6F90C494968C1F38131491C49005D
:101AD000B0FBF1F900E000BF00BF484605B0BDE82B
:101AE000F083000002030405060708090A0B0C0D29
:101AF0000E0F1010010200000010024000127A00C8
:101B000000093D00F8B5044600260025207800F0C5
:101B1000010000286BD000274348C06900F08050C6
:101B200070B900BF4048C06940F080503E49C8616C
:101B30000846C06900F08050009000BF00BF012738
:101B40003A48006800F48070B0B93848006840F442
:101B5000807036490860FFF76FFD064606E0FFF724
:101B60006BFD801B642801D90320F8BD2F48006855
:101B700000F480700028F2D02B48006A00F4407511
:101B80002DB3A08800F44070A84220D02648006AF7
:101B900020F4407501202649086000200860224892
:101BA000056205F0010090B1FFF746FD064608E02A
:101BB000FFF742FD801B41F28831884201D90320A2
:101BC000D3E71948006A00F002000028F0D0164858
:101BD000006A20F440706168084313490862012FCD
:101BE00004D10846C06920F08050C86100BF207849
:101BF00000F00200022807D10B48406820F4404062
:101C0000A168084308494860207800F010001028B7
:101C100007D10548406820F48000E1680843024984
:101C200048600020A1E70000001002400070004062
:101C30004004424270B504460D4600266D480068D7
:101C400000F00700A8420ED26A48006820F00700A2
:101C50002843684908600846006800F00700A84269
:101C600001D0012070BD207800F0020002281DD1B3
:101C7000207800F00400042805D15F48406840F453
:101C8000E0605D494860207800F00800082805D130
:101C90005948406840F46050574948605648406889
:101CA00020F0F000A168084353494860207800F014
:101CB000010000285DD06068012806D14E48006808
:101CC00000F4003090B90120CCE76068022806D10A
:101CD0004948006800F0007040B90120C2E746485A
:101CE000006800F0020008B90120BBE742484068E4
:101CF00020F00300616808433F494860FFF79CFCFF
:101D000006466068012810D108E0FFF795FC801BAB
:101D100041F28831884201D90320A3E73648406860
:101D200000F00C000428F0D123E06068022810D1F4
:101D300008E0FFF781FC801B41F28831884201D91D
:101D400003208FE72C48406800F00C000828F0D1F1
:101D50000FE008E0FFF770FC801B41F288318842F9
:101D600001D903207EE72448406800F00C000028D9
:101D7000F0D12048006800F00700A8420ED91D48A5
:101D8000006820F0070028431A49086008460068E8
:101D900000F00700A84201D0012063E7207800F09E
:101DA0000400042807D11448406820F4E060E1688A
:101DB000084311494860207800F00800082808D13D
:101DC0000D48406820F46050216940EAC1000A498A
:101DD000486000F03DF808494968C1F30311074A1B
:101DE000515CC840064908600020FFF745FD00200F
:101DF00038E700000020024000100240AE46000814
:101E000034010020014800687047000034010020C0
:101E100000B5FFF7F7FF04494968C1F30221034AFF
:101E2000515CC84000BD000000100240BE460008E2
:101E300000B5FFF7E7FF04494968C1F3C221034A2F
:101E4000515CC84000BD000000100240BE460008C2
:101E5000F0B585B00FF26C0C9CE8E01001A8A0E88A
:101E6000E0101CA52D68009500210022002300240D
:101E70000020194D696801F00C05F5B1042D02D060
:101E8000082D19D101E0154819E001ADC1F38346D1
:101E9000AC5D01F4803555B10F4D6D68C5F340451B
:101EA0001DF805200D4D6543B5FBF2F302E00C4D26
:101EB00004FB05F3184602E000BF084800BF00BF5E
:101EC00005B0F0BD02030405060708090A0B0C0D56
:101ED0000E0F1010010200000010024000127A00E4
:101EE00000093D00F8B504460025207800F0010007
:101EF000002878D0F848406800F00C0004280CD086
:101F0000F548406800F00C00082811D1F2484068FC
:101F100000F48030B0F5803F0AD1EF48006800F44B
:101F2000003000285FD0606800285CD10120F8BD37
:101F300000BF6068B0F5803F06D1E748006840F414
:101F40008030E549086028E0606858B9E2480068D8
:101F500020F48030E04908600846006820F48020C2
:101F600008601AE06068B0F5A02F0BD1DA4800686D
:101F700040F48020D84908600846006840F480306A
:101F800008600AE0D448006820F48030D249086034
:101F90000846006820F48020086000BF606888B1AF
:101FA000FFF74AFB054606E0FFF746FB401B6428A7
:101FB00001D90320BBE7C848006800F400300028BE
:101FC000F2D010E0FFF738FB054606E0FFF734FBE0
:101FD000401B642801D90320A9E7BF48006800F42A
:101FE00000300028F2D1207800F00200022857D1FA
:101FF000B948406800F00C0050B1B748406800F0A4
:102000000C00082818D1B448406800F4803098B912
:10201000B148006800F0020020B12069012801D019
:10202000012084E7AC48006820F0F800616940EACC
:10203000C100A949086033E02069E8B10120A7493F
:102040000860FFF7F9FA054606E0FFF7F5FA401BCE
:10205000022801D903206AE79F48006800F00200C7
:102060000028F2D09C48006820F0F800616940EA3E
:10207000C1009949086013E0002098490860FFF703
:10208000DBFA054606E0FFF7D7FA401B022801D924
:1020900003204CE79048006800F002000028F2D1CD
:1020A000207800F0080008282DD1A069B8B10120DF
:1020B0008B490860FFF7C0FA054606E0FFF7BCFA57
:1020C000401B022801D9032031E78348406A00F011
:1020D00002000028F2D0012001F0C4FC13E000202F
:1020E0007F490860FFF7A8FA054606E0FFF7A4FA63
:1020F000401B022801D9032019E77748406A00F005
:1021000002000028F2D1207800F00400042873D1E6
:1021100000267148C06900F0805070B900BF6E4859
:10212000C06940F080506C49C8610846C06900F041
:102130008050009000BF00BF01266A48006800F48C
:102140008070B0B96748006840F4807065490860E5
:10215000FFF772FA054606E0FFF76EFA401B6428A7
:1021600001D90320E3E65F48006800F4807000288E
:10217000F2D000BFE068012806D15748006A40F05D
:1021800001005549086227E0E06858B95248006AE2
:1021900020F00100504908620846006A20F004005F
:1021A000086219E0E06805280BD14B48006A40F04E
:1021B0000400494908620846006A40F001000862CC
:1021C0000AE04548006A20F00100434908620846D9
:1021D000006A20F00400086200BFE068A0B1FFF7C9
:1021E0002BFA054609E0FFF727FA401B41F2883138
:1021F000884202D903209AE622E03748006A00F0BC
:1022000002000028EFD012E0FFF716FA054608E0BA
:10221000FFF712FA401B41F28831884201D90320AE
:1022200085E62D48006A00F002000028F0D1012E5A
:1022300005D12948C06920F080502749C86100BFF6
:10224000E069C8B32448406800F00C00082860D05A
:10225000E069022848D1002020490866FFF7ECF920
:10226000054606E0FFF7E8F9401B022801D90320E4
:102270005DE61948006800F000700028F2D1206A7D
:10228000B0F5803F07D11448406820F40030A168C1
:10229000084311494860D4E9080108430E494968D8
:1022A00021F4741108430C49486001200B49086669
:1022B000FFF7C2F9054607E02DE0FFF7BDF9401B27
:1022C000022801D9032032E60348006800F00070BC
:1022D0000028F2D01FE0000000100240000042423F
:1022E000800442420070004000200C490866FFF75D
:1022F000A3F9054606E0FFF79FF9401B022801D924
:10230000032014E60648006800F000700028F2D1AF
:1023100001E001200BE6002009E600000000424237
:1023200000100240F8B505460C4616460020009005
:1023300005B10CB90120F8BD00226946284600F01D
:102340001AF808B10120F6E7287B2070E87BE070DE
:10235000687B6070A87BA0705EB1E07801F0CDFB77
:10236000E070607801F0C9FB6070A07801F0C5FBF7
:10237000A0700020DFE72DE9F04780460C4691462B
:1023800000250026AA460027B8F1000F00D014B996
:102390000120BDE8F087D8F800004068C0F3800055
:1023A00008B10120F5E7404601F09CFC05464FF4DA
:1023B0006160B5FBF0F7B5FBF0F100FB11503C217B
:1023C000B0FBF1F060704FF46160B5FBF0F100FB21
:1023D00011503C21B0FBF1F201FB1200A070182F4C
:1023E00039D31820B7FBF0FAB7FBF0F100FB1170FE
:1023F0002070404601F06AFC0646701C18B1AE42DF
:1024000001D9761B01E04FF0FF360AEB4A00C0000D
:10241000C0EB4011C1EB0020A5EB0015294640465A
:1024200001F0D3FC08B10120B3E7701C38B12E4491
:102430003146404601F0B2FC40B10120A9E73146E7
:10244000404601F0ABFC08B10120A2E751464046EE
:1024500001F060FB00E02770B9F1000F0BD020788D
:1024600001F04BFB2070607801F047FB6070A078B2
:1024700001F043FBA07000208BE7000070B504461C
:1024800000250CB9012070BD607C20B900202074AB
:10249000204600F05BF802206074204600F060F9EE
:1024A00018B1042060740120EDE7204601F08DFB97
:1024B00018B1042060740120E5E72068406820F02E
:1024C000070021684860A06828B11F48006820F014
:1024D00001001D4908601C48001F006820F460705E
:1024E000A16808431849091F08606068401C08B1CA
:1024F000656809E00120FFF775FA05461DB904205B
:1025000060740120BFE76D1E2068806820F00F0016
:1025100040EA1540216888602068C06865F30F00B4
:102520002168C860204601F06DFB18B1042060747A
:102530000120A8E70021E17301216173A17301204B
:10254000607400209FE70000306C004038B50446FE
:102550000B492068884212D1FFF73EFA00BF0948B4
:10256000C06940F000600749C8610846C06900F0D2
:102570000060009000BF00BF01200349086038BD23
:1025800000280040001002403C0442422DE9F04780
:1025900004460D46904600260027B14604B115B901
:1025A0000120BDE8F08700BF207C012801D1022076
:1025B000F7E70120207400BF02206074B8F1000F1B
:1025C00006D1E978E17369786173A978A1730BE0AA
:1025D000E87801F087FAE073687801F083FA6073B5
:1025E000A87801F07FFAA073A27B617BE07B01F009
:1025F00093FB2073207B2870204601F073FB064676
:102600004FF46160B6FBF0F9B9F1180F2FD918201B
:10261000B9FBF0F000EB4000C000C0EB4011C1EB93
:102620000020A6EB00163146204601F0CEFB38B163
:102630000420607400BF0020207400BF0120B0E7B8
:10264000204601F043FB0746781C80B1B7420ED20A
:102650000B4807443946204601F0A0FB38B104205E
:10266000607400BF0020207400BF012099E70120A2
:10267000607400BF0020207400BF00BF91E700001D
:10268000805101002DE9F04704460D469046002692
:10269000002704B115B90120BDE8F08700BF207CF8
:1026A000012801D10220F7E70120207400BF022099
:1026B0006074B8F1000F0BD128784FF46161484382
:1026C0006978C1EB011100EB8100A978461812E08E
:1026D000287801F007FA4FF4616100FB01F968788E
:1026E00001F000FAC0EB001009EB8009A87801F0B6
:1026F000F9F909EB00063146204601F066FB38B1D6
:102700000420607400BF0020207400BF0120C3E7D4
:102710002068406820F0050021684860204601F0EC
:10272000D5FA0746781C80B1B7420ED20B48074451
:102730003946204601F032FB38B10420607400BFF6
:102740000020207400BF0120A6E70120607400BFB4
:102750000020207400BF00BF9EE7000080510100F0
:1027600070B5044600250CB9012070BD2068406892
:1027700020F0080021684860FEF75EFF054607E08C
:10278000FEF75AFF401BB0F57A7F01D90320ECE732
:102790002068406800F008000028F1D00020E4E73D
:1027A00070B504462546681EB0F1807F01D3012034
:1027B0000FE0681E4FF0E02148610F214FF0FF301D
:1027C00001F02EF900204FF0E02188610720086118
:1027D000002070BD70477047024600BF92F83C0071
:1027E000012801D102207047012082F83C0000BF7F
:1027F000022082F83D001068406820F070001368E5
:102800005860106840680B68184313685860106877
:10281000806820F0800013689860106880684B68BA
:10282000184313689860012082F83D0000BF002023
:1028300082F83C0000BF00BFD5E710B504460CB9D4
:10284000012010BD94F83D0028B9002084F83C0018
:10285000204600F00DF8022084F83D00211D20687C
:1028600001F00CFC012084F83D000020E9E70000A5
:1028700038B504463449206888422ED100BF334819
:10288000806940F40060314988610846806900F43D
:102890000060009000BF00BF002211461820FFF723
:1028A00048F81820FFF738F8002211461920FFF7E2
:1028B00040F81920FFF730F8002211461A20FFF7E0
:1028C00038F81A20FFF728F8002211461B20FFF7DE
:1028D00030F81B20FFF720F834E02068B0F1804F7B
:1028E00016D100BF1948C06940F001001749C861FE
:1028F0000846C06900F00100009000BF00BF002240
:1029000011461C20FFF715F81C20FFF705F819E009
:102910000F492068884215D100BF0C48C06940F0BB
:1029200002000A49C8610846C06900F00200009030
:1029300000BF00BF002211461D20FEF7FAFF1D2038
:10294000FEF7EAFF38BD0000002C014000100240F5
:102950000004004001460868C06840F001000A68B1
:10296000D0600868006840F001000A68106000202C
:1029700070472DE9F04104460D46002600BF94F84B
:102980003C00012802D10220BDE8F081012084F83A
:102990003C0000BF022084F83D002068866826F0D5
:1029A000770626F47F4620688660286850283BD04A
:1029B0000CDC202860D004DC002853D0102865D11E
:1029C00055E030285DD0402860D141E0602835D006
:1029D00070280DD0B0F5805F03D0B0F5005F55D101
:1029E00015E02068806820F00700216888604EE0CC
:1029F000D5E902136A68206801F07AFB20688668CE
:102A000026F0770646F07706206886603FE0D5E935
:102A100002136A68206801F06BFB2068806840F44C
:102A200080402168886032E0EA686968206801F0C7
:102A300075FB5021206801F067FB28E0EA686968AF
:102A4000206801F080FB6021206801F05DFB1EE042
:102A5000EA686968206801F061FB4021206801F0A4
:102A600053FB14E00021206801F04EFB0FE0102121
:102A7000206801F049FB0AE02021206801F044FBB6
:102A800005E03021206801F03FFB00E000BF00BFFF
:102A9000012084F83D0000BF002084F83C0000BF06
:102AA00000BF71E7704710B5044620680069C0F3A5
:102AB0004000D8B12068C068C0F34000B0B16FF0EA
:102AC000020021680861012020772068806900F0F9
:102AD000030018B12046FFF7E5FF05E0204600F0AF
:102AE000ADF8204600F0ABF80020207720680069A0
:102AF000C0F38000D8B12068C068C0F38000B0B1D6
:102B00006FF0040021680861022020772068806946
:102B100000F4407018B12046FFF7C4FF05E02046DE
:102B200000F08CF8204600F08AF80020207720681A
:102B30000069C0F3C000D8B12068C068C0F3C0000D
:102B4000B0B16FF008002168086104202077206888
:102B5000C06900F0030018B12046FFF7A3FF05E0AD
:102B6000204600F06BF8204600F069F8002020773E
:102B700020680069C0F30010D8B12068C068C0F3B5
:102B80000010B0B16FF010002168086108202077B4
:102B90002068C06900F4407018B12046FFF782FF3A
:102BA00005E0204600F04AF8204600F048F80020F2
:102BB00020772068006900F0010058B12068C068E3
:102BC00000F0010030B16FF001002168086120467B
:102BD00000F036F820680069C0F3C01058B12068D2
:102BE000C068C0F3C01030B16FF080002168086188
:102BF0002046FFF7EFFD20680069C0F3801058B150
:102C00002068C068C0F3801030B16FF040002168C8
:102C10000861204600F052F820680069C0F34010B7
:102C200058B12068C068C0F3401030B16FF0200088
:102C3000216808612046FFF7CEFD10BD7047704740
:102C400010B517490978491C154A11700168B1F18E
:102C5000804F0DD10321134A1170134909780129BE
:102C600003D10021104A117002E001210E4A1170B7
:102C70000E4A0168914204D10D490968491C0C4A69
:102C800011600C4A0168914208D10B49D1E9004119
:102C9000631C41F10001084AC2E9003110BD000087
:102CA00069000020000000200A000020002C0140E4
:102CB00024000020000400402800002070477047D6
:102CC0002DE9F0470446206805682068C66820683A
:102CD00047694FF00008C14605F00F08B8F1000F32
:102CE0000AD105F0200038B106F0200020B12046BE
:102CF00001F0FFFABDE8F087B8F1000F6DD007F0E2
:102D0000010018B906F49070002866D005F00100A3
:102D100030B106F4807018B1E06B40F00100E06360
:102D200005F0040030B107F0010018B1E06B40F08D
:102D30000200E06305F0020030B107F0010018B1B5
:102D4000E06B40F00400E06305F0080030B107F0EC
:102D5000010018B1E06B40F00800E063E06B68B37D
:102D600005F0200028B106F0200010B1204601F047
:102D7000C0FA20684069C0F38019E06B00F00800D9
:102D800010B9B9F1000F22D0204601F088FA20686E
:102D9000406900F04000B0B12068406920F0400078
:102DA00021684861606B50B11748616B4863606B84
:102DB000FEF718F810B1606B416B88470CE02046B5
:102DC000FFF77DFF08E02046FFF779FF04E020468B
:102DD000FFF775FF0020E0638CE705F0800030B15D
:102DE00006F0800018B1204601F0BAFB82E705F03A
:102DF000400030B106F0400018B1204601F05FFA03
:102E000078E700BF76E70000E741000810B5044608
:102E10000CB9012010BDA06900B100E000BF94F81A
:102E2000390028B9002084F83800204600F028F83E
:102E3000242084F839002068C06820F400502168FC
:102E4000C860204601F0A8FA2068006920F490408C
:102E5000216808612068406920F02A0021684861E3
:102E60002068C06840F400502168C8600020E0631A
:102E7000202084F8390084F83A000020CAE70000D6
:102E800010B586B00446002002900390049005908F
:102E90005B49206888425AD100BF5A48806940F493
:102EA0008040584988610846806900F4804001905C
:102EB00000BF00BF00BF0846806940F0080088617D
:102EC0000846806900F00800019000BF00BF402064
:102ED0000290022003900320059002A94A48FEF7C1
:102EE0000FFA8020029000200390049002A9464827
:102EF000FEF706FA00BF4549486840F0E06040F040
:102F00000400486000BF4248424908600020486011
:102F10000021404881608021C16000210161416140
:102F2000202181610021C161FEF782F808B1FDF71F
:102F3000D3FD00BF37486063446200BF00221146E2
:102F40002520FEF7F6FC2520FEF7E6FC55E0324989
:102F50002068884251D100BF2A48C06940F400303F
:102F60002849C8610846C06900F40030019000BFDC
:102F700000BF00BF0846806940F004008861084631
:102F8000806900F00400019000BF00BF042002909F
:102F9000022003900320059002A92048FEF7B0F913
:102FA0000820029000200390049002A91B48FEF71D
:102FB000A7F9174814301A4908600020486000211A
:102FC000174881608021C160002101614161202199
:102FD00081610021C161FEF72BF808B1FDF77CFD8E
:102FE00000BF0F486063446200BF002211462620E4
:102FF000FEF79FFC2620FEF78FFC06B010BD0000F8
:103000000038014000100240000C01400000014067
:1030100058000240080A0020004400400008014017
:103020004C0A002077B581B00446154694F83A0062
:10303000202850D1029800B115B9012004B070BD0C
:1030400000BF94F83800012801D10220F6E70120E2
:1030500084F8380000BF0298A062A5850020E063D4
:10306000222084F83A001D48616B88621C48616B1D
:10307000C8621C48616B08630020616B486302AE44
:1030800032682368191D2B46606BFEF705F800BFF8
:103090000020009020680068009020684068009040
:1030A00000BF00BF00BF002084F8380000BF2068C8
:1030B000C06840F480702168C8602068406940F0B2
:1030C0000100216848612068406940F040002168A3
:1030D00048610020B2E70220B0E700004B42000840
:1030E00091420008FB4100080321014A117070471A
:1030F0000801002070472DE9F84304460D461646A6
:103100001F464FF0000994F8390020285CD105B122
:1031100016B90120BDE8F88300BF94F838000128F3
:1031200001D10220F6E7012084F8380000BF00201A
:10313000E063212084F83900FEF77EFA8146A684F8
:10314000E6842BE0E08C401EE084A068B0F5805F50
:1031500016D14B46002280212046009701F034FA18
:1031600008B10320D6E7A846B8F80000C0F308006D
:1031700021684860206908B9AD1C0FE06D1C0DE0A6
:103180004B46002280212046009701F01DFA08B12D
:103190000320BFE715F8010B21684860E08C002888
:1031A000D0D14B46002240212046009701F00CFA76
:1031B00008B10320AEE7202084F8390000BF0020CA
:1031C00084F8380000BFA5E70220A3E710B5034646
:1031D00093F83900202823D101B10AB9012010BD8C
:1031E00000BF93F83800012801D10220F7E7012041
:1031F00083F8380000BF19629A84DA840020D8630B
:10320000212083F8390000BF002083F8380000BF78
:103210001868C06840F080001C68E0600020DEE7AD
:103220000220DCE77047000010B500204D4908700F
:1032300014E04D484B490978405CA52809D101208C
:10324000FDF778FF474800784849087000F000FE15
:1032500008E044480078401C424908704148007822
:103260002328E6DB00BF404840490978405C5A28E3
:1032700076D100F0EDFD3C483C490978405C3C4982
:103280000870084600783B49088000F0E1FD00F036
:10329000DFFD354835490978405C364948800846A5
:1032A00040884FF6FF7101EA00203249488000F063
:1032B000CFFD304840882C492C4A1278895C08435D
:1032C0002C49488000F0C4FD274828490978405C13
:1032D0002949087000F0BCFD2748007801281FDD4F
:1032E000254800782349088000201E49087010E016
:1032F0001D481E490978415C1A480078801C1D4A07
:1033000022F8101000F0A4FD16480078401C154962
:10331000087014480078184909788842E8DB18E0FA
:10332000114812490978405C124988800846808813
:103330004FF6FF7101EA00200E49888000F088FDF9
:103340000C4880880849094A1278895C0843094971
:10335000888000F09BFB0020084908700349087032
:10336000044810BD0C010020760300200F0100204E
:1033700009010020C00300200A0100200E010020E6
:1033800010B5232202490348FFF74CFE10BD000090
:10339000760300208809002070B504460D462946B2
:1033A0002046FDF715FB70BD00BFFEE710B52020DD
:1033B0001049087000F0BAFD01200F49087013E0B1
:1033C0000D48007800F0B8F80C4908700120FDF7AE
:1033D00039F90849094A12788854FDF721F9064855
:1033E0000078401C04490870034800782028E7DD75
:1033F000004810BD0F030020D1000020CF000020A6
:1034000001464A48008800F00F02002A1AD1001134
:103410001038242816D2DFE800F012161A1E2226D1
:103420002A2E32378282828282823C41464B50551C
:103430005A5F64698282828282826E73787D002004
:103440003B4A10606BE02020394A106067E0402062
:10345000374A106063E06020354A10605FE08020EA
:10346000334A10605BE0A020314A106057E0C02072
:103470002F4A106053E0E0202D4A10604FE04FF4D7
:1034800080702B4A10604AE04FF49070284A106018
:1034900045E04FF4A070264A106040E04FF4B07051
:1034A000234A10603BE04FF4C070214A106036E0C0
:1034B0004FF4D0701E4A106031E04FF4E0701C4AA7
:1034C00010602CE04FF4F070194A106027E04FF4C0
:1034D0000070174A106022E04FF40870144A106020
:1034E0001DE04FF41070124A106018E04FF418708D
:1034F0000F4A106013E04FF420700D4A10600EE088
:103500004FF428700A4A106009E04FF43070084AFE
:10351000106004E04FF43870054A106000BF00BF2F
:1035200003480068034A104470470000120100205D
:1035300018010020009C01080146212972D2DFE811
:1035400001F086727A827E868686765D5955516D47
:103550006965613D3935314D4945411D1915112DBB
:103560002925210001203E4A107074E002203C4AC7
:10357000107070E003203A4A10706CE00420384A62
:10358000107068E00520364A107064E00620344A66
:10359000107060E00720324A10705CE00820304A6A
:1035A000107058E009202E4A107054E00A202C4A6E
:1035B000107050E00B202A4A10704CE00C20284A72
:1035C000107048E00D20264A107044E00E20244A76
:1035D000107040E00F20224A10703CE01020204A7A
:1035E000107038E011201E4A107034E012201C4A7E
:1035F000107030E013201A4A10702CE01420184A82
:10360000107028E01520164A107024E01620144A85
:10361000107020E01720124A10701CE01820104A89
:10362000107018E013E019200D4A107013E01A20F2
:103630000B4A10700FE01B20094A10700BE01D2090
:10364000074A107007E01E20054A107003E00020B2
:10365000034A107000BF00BF0148007870470000A7
:10366000D000002008B500BF0E48406940F00100BE
:103670000C4948610846406900F00100009000BF15
:1036800000BF002211460F20FEF753F90F20FEF76E
:1036900043F9002211461020FEF74BF91020FEF7E7
:1036A0003BF908BD0010024000B585B00020019034
:1036B00002900390049000BF2948806940F02000E8
:1036C000274988610846806900F02000009000BF0B
:1036D00000BF00BF0846806940F0040088610846CA
:1036E000806900F00400009000BF00BF00BF0846E2
:1036F000806940F0080088610846806900F0080091
:10370000009000BF00BF00224FF460611548FDF734
:103710008DFF012211031348FDF788FF012001905E
:1037200000200290039001A90E48FDF7E9FD4FF437
:10373000F05001900120029000200390022004909C
:1037400001A90848FDF7DCFD4FF40070019000204E
:103750000290039001A90448FDF7D2FD05B000BD19
:103760000010024000080140000C014010B50B4859
:103770000B4908600B484860002109488160C1601E
:103780004FF480410161002141618161C1610162A9
:10379000FDF758FF08B1FDF79FF910BD0058004034
:1037A00060080020A08601001CB500200190009058
:1037B00019481A4908604FF0FF3048600021174847
:1037C0008160FEF75BFE08B1FDF786F914208DF8E5
:1037D000040024208DF8050000208DF80600012249
:1037E00001A90E48FEF74EFF08B1FDF775F9042058
:1037F0008DF8000003208DF801008DF802002220D2
:103800008DF80300012269460448FEF7BFFE08B1A7
:10381000FDF762F91CBD000000280040B40800203C
:1038200000B587B0002003900490059006900190A9
:1038300002901548154908602F2048600021134860
:10384000816040F2DB51C160002101614161816111
:10385000FEF7F3FF08B1FDF73FF94FF480500390F6
:1038600003A90A48FFF785F808B1FDF735F92020CC
:1038700001900020029001A90448FEF7ADFF08B1B5
:10388000FDF72AF907B000BD002C0140C808002050
:1038900000B587B000200390049005900690019039
:1038A00002904FF08040154908604BF67F30486029
:1038B00000211248816040F2DB51C16000210161AA
:1038C0008161FEF7BAFF08B1FDF706F94FF48050A9
:1038D000039003A90948FFF74CF808B1FDF7FCF87D
:1038E000202001900020029001A90448FEF774FFF7
:1038F00008B1FDF7F1F807B000BD0000080900208D
:1039000000B587B0002003900490059006900190C8
:1039100002901448144908602E2048600021124883
:1039200081600121C160002101618161FEF785FF95
:1039300008B1FDF7D1F84FF48050039003A90A486D
:10394000FFF717F808B1FDF7C7F820200190002015
:10395000029001A90448FEF73FFF08B1FDF7BCF84B
:1039600007B000BD000400404809002010B50A4817
:103970000A4908600A484860002108488160C1601F
:1039800001610C21416100218161C161FFF73EFAB3
:1039900008B1FDF7A1F810BD0038014088090020EA
:1039A000008C0A0010B50B480B4908604FF4E13059
:1039B0004860002108488160C16001610C214161BB
:1039C00000218161C161FFF721FA08B1FDF784F898
:1039D00010BD000000440040C809002000BFFEE701
:1039E000002000BF0CE000EB8001074A515C012978
:1039F00004D100EB8002044B1A449170411CC8B200
:103A00001828F0DD704700003801002070470000E2
:103A100002480068C0F30220704700000CED00E08F
:103A200010B5002807DA0A07140E054A00F00F0344
:103A30001B1FD45403E00A07130E024A135410BD8F
:103A400018ED00E000E400E010B50448808840F282
:103A50005741884201D1FDF727F810BD140000201E
:103A60007047000008B508490968C9084FF47A7220
:103A7000B1FBF2F14143009100BF00BF00994A1E23
:103A800000920029F9D108BD34010020002014491A
:103A9000087048708870C870087148718871C87162
:103AA000087248728872C872087348738873C87342
:103AB000087448748874C874087548758875C87522
:103AC000087648768876C876087748778877C87702
:103AD00081F8200081F8210081F822007047000061
:103AE00076030020014600BF080900EB8000420079
:103AF00001F00F001044C0B270470146002203E0FD
:103B0000521CA1F10A00C1B20A29F9D2100741EAF8
:103B1000106070472DE9F0470646884600270024CC
:103B20000025A146F77B747BB57B00BF40E0012CEC
:103B30000BD0032C09D0052C07D0072C05D0082C5E
:103B400003D00A2C01D00C2C0CD11F2D01D26D1CDE
:103B50002CE00C2C02D0641C012527E00124012557
:103B60007F1C23E0042C05D0062C03D0092C01D0A7
:103B70000B2C06D11E2D01D26D1C17E0641C0125F3
:103B800014E0022C12D11C2D01D26D1C0EE01C2D54
:103B900008D1B8B200F053F808B16D1C06E0641CFF
:103BA000012503E01D2D01D1641C012509F1010946
:103BB000C145BCD3F7737473B573EAB2E1B238464A
:103BC00000F0AAF83073BDE8F08770B50446002510
:103BD000FDF732FD054607E0FDF72EFD401BB0F571
:103BE0007A7F01D9032070BD2068406800F0200072
:103BF0000028F1D02068406840F01000216848603B
:103C00000020F0E770B5044600252068406820F0E9
:103C1000100021684860FDF70FFD054607E0FDF73D
:103C20000BFD401BB0F57A7F01D9032070BD2068E1
:103C3000406800F020000028F1D00020F6E701469F
:103C400001F0030008B1002070476420B1FBF0F2DE
:103C500000FB121008B10120F6E74FF4C870B1FB69
:103C6000F0F200FB121008B90120EDE70020EBE7AD
:103C700010B5002210491148FEF77DFB00221049C3
:103C80000E48FEF74FFB0E48C0780E4908700C48EE
:103C9000407848700A488078887007480078C87073
:103CA0000548407808494870034880780870024801
:103CB000FCF76AFE10BD00005C000020B408002084
:103CC0005F00002063000020500000200146002219
:103CD00000230868006A82B20868406A83B243EA37
:103CE0000240704730B50146002200230024002026
:103CF0000D68AD69AAB20D68ED69ACB20D68AD6929
:103D0000ABB29A4205D00D68ED6963F31F452846B2
:103D100001E044EA024030BDF0B504460B46002104
:103D2000002504F5FA61032B1BD2C3EBC30000EBA3
:103D300003100926B0FBF6F01044001D4618481E7B
:103D400006EB90066427B0FBF7F0361A481EBF005A
:103D5000B0FBF7F030440726B0FBF6F706FB17057B
:103D60001AE0C3EBC30000EB03100926B0FBF6F02A
:103D70001044001D084400EB91006426B1FBF6F6E8
:103D8000801B4FF4C876B1FBF6F63044801E072640
:103D9000B0FBF6F706FB1705E8B2F0BD70B50446B8
:103DA0000D4600262046FFF710FF08B101260AE065
:103DB000280C21680862A8B2216848622046FFF7F3
:103DC00021FF00B10126304670BD70B504460D4696
:103DD00000262046FFF7F9FE08B101260AE0280C6C
:103DE00021688861A8B22168C8612046FFF70AFFF0
:103DF00000B10126304670BD002000BF0EE000215A
:103E000000EB8002074B995400EB80021A4451707A
:103E100000EB80021A449170411CC8B21828EEDDF4
:103E2000704700003801002010B500224FF4805187
:103E30000548FDF7FBFBFCF72FFE012211030248AA
:103E4000FDF7F4FB10BD00000008014070470000C2
:103E500006480078232803D100200449087004E0B4
:103E600002480078401C0149087070470F0100208B
:103E700010B51448144908600020144908701CE06B
:103E80000120FDF757F912481049097850F8210030
:103E900070B10F480D49097850F821400B4800785F
:103EA000084A02EB8001224600230220FDF7B8F900
:103EB00006480078401C0549087004480078FF282F
:103EC000DEDB10BD009C0108200100201C01002049
:103ED00008040020114812490860002011490870A8
:103EE00017E00F4800680F49097850F82100401C7E
:103EF00050B10B4800680B49097850F821000A4975
:103F0000084A127841F8220006480078401C05490A
:103F1000087004480078FF28E3DB7047009C010824
:103F2000200100201C0100200804002010B5FFF72C
:103F30007BFF10BD10B5FDF77FFC10BD00B593B041
:103F4000282109A8FCF707F9142104A8FCF703F9B4
:103F500000200090019002900390092009904FF4F6
:103F600080300A9000200B9001200D900F900220CD
:103F70001090C10311914FF4E011129109A8FDF7BF
:103F8000B1FF08B1FCF7A8FD0F20049002200590B6
:103F9000002006904FF480600790002008900221D6
:103FA00004A8FDF747FE08B1FCF796FD012000903C
:103FB000400201906846FDF7A5FD08B1FCF78CFDB5
:103FC00013B000BD1148006840F001000F490860BF
:103FD000084640680E4908400C4948600846006899
:103FE0000C490840094908600846006820F4802010
:103FF00008600846406820F4FE0048604FF41F0047
:104000008860C8030449086070470000001002403F
:104010000000FFF8FFFFF6FE08ED00E010B50248D3
:10402000FEF741FD10BD0000C808002010B5024891
:10403000FEF739FD10BD0000C808002010B5024889
:10404000FEF731FD10BD0000C808002010B5024881
:10405000FEF729FD10BD0000C808002010B5024879
:10406000FEF721FD10BD00000809002010B5024830
:10407000FEF719FD10BD000048090020002202686B
:10408000184B984208D0B0F1804F05D0164B98429B
:1040900002D0164B984203D122F070024B681A43AB
:1040A000104B984208D0B0F1804F05D00E4B98428B
:1040B00002D00E4B984203D122F44072CB681A43CF
:1040C00022F080024B691A4302608B68C3620B685E
:1040D0008362044B984201D10B690363012343615E
:1040E00070470000002C0140000400400008004020
:1040F00030B50C460021816821F47F4142EA032556
:1041000025432943816030BD0A460021816821F0A2
:10411000700142F0070319438160704730B50B46C8
:10412000144600210022026A056A25F00105056295
:10413000816921F0F00141EA041122F00A021A43D8
:104140008161026230BD30B50B4614460021002269
:10415000056A25F0100505628169026A21F4704143
:1041600041EA043122F0A00242EA031281610262B4
:1041700030BD000010B501200D4908700FE00C485B
:10418000007800EB80000B490844C0780A49084ACF
:104190001278885406480078401C05490870044885
:1041A00000781828EBDD044800F008F810BD000086
:1041B00008000020380100201602002070B50546D6
:1041C0000024012408E0295D2046FCF701FC64205E
:1041D000FCF7FCFA601CC4B2182CF4DD4FF44870F4
:1041E000FCF7A8FF70BD70B505466C6A0020E0853D
:1041F000E0842046FEF763FD70BD70B506460025DD
:10420000746A20684069C0F3C01594F83900212809
:1042100005D125B10020E084204600F060F8206838
:104220004069C0F3801594F83A00222805D125B1E1
:104230000020E085204600F032F8E06B40F01000EE
:10424000E0632046FEF73BFD70BD70B505466C6A25
:104250002868006800F02000B0B90020E0852068E0
:10426000C06820F480702168C8602068406920F030
:104270000100216848612068406920F04000216801
:104280004861202084F83A002046FEF72DFF70BDDB
:1042900070B50446656A2846FEF72CFF70BD0168BC
:1042A000C96821F490710268D1600168496921F000
:1042B000010102685161202180F83A10704710B561
:1042C00004462068C06820F040002168C8602020B3
:1042D00084F839002046FEF7A5FF002010BD0168D4
:1042E000C96821F0C0010268D160202180F839102E
:1042F000704770B5044694F83A0022284AD1A06865
:10430000B0F5805F13D1A56A206940B92068406884
:10431000C0F308002880A06A801CA06219E0206811
:104320004068C0B22880A06A401CA06211E02069E9
:1043300038B920684068C1B2A26A501CA0621170EE
:1043400007E02068406800F07F01A26A501CA0626C
:104350001170E08D401E80B2E085C8B92068C06849
:1043600020F020002168C8602068C06820F48070B8
:104370002168C8602068406920F001002168486118
:10438000202084F83A002046FEF7AEFE002070BDE3
:104390000020FCE70220FAE72DE9F0410446002561
:1043A0002068006920F44050E168084321680861F2
:1043B0002169A06808436169084305432068C06813
:1043C00041F20C61884328432168C8602068406935
:1043D00020F44070A1690843216848615F49206862
:1043E00088425CD1FDF724FD00EBC00101EB001019
:1043F00061688900B0FBF1F6FDF71AFD00EBC00122
:1044000001EB001061688900B0FBF1F06421B0FBA2
:10441000F1F000EBC00101EB0010A6EB80003221AF
:1044200001EB00106421B0FBF1F000F0F006FDF7A5
:10443000FFFC00EBC00101EB001061688900B0FBDC
:10444000F1F06421B0FBF1F006EB0016FDF7F0FC93
:1044500000EBC00101EB001061688900B0FBF1F7CF
:10446000FDF7E6FC00EBC00101EB0010616889007C
:10447000B0FBF1F06421B0FBF1F000EBC00101EB07
:104480000010A7EB8000322101EB00106421B0FB8B
:10449000F1F000F00F003044216888605BE0FDF728
:1044A000B7FC00EBC00101EB001061688900B0FBB4
:1044B000F1F6FDF7ADFC00EBC00101EB0010616807
:1044C0008900B0FBF1F06421B0FBF1F000EBC0011A
:1044D00001EB0010A6EB8000322101EB00106421FB
:1044E000B0FBF1F000F0F006FDF792FC00EBC0012C
:1044F00001EB001061688900B0FBF1F06421B0FBB2
:10450000F1F006EB0016FDF783FC00EBC00101EBB8
:10451000001061688900B0FBF1F7FDF779FC00EB52
:10452000C00101EB001061688900B0FBF1F064216B
:10453000B0FBF1F000EBC00101EB0010A7EB800035
:10454000322101EB00106421B0FBF1F000F00F000C
:10455000304421688860BDE8F081000000380140E7
:10456000014691F8390021282CD18868B0F5805F88
:104570000FD10A6A1088C0F308000B6858600869F8
:1045800018B9086A801C086209E0086A401C0862C1
:1045900005E00B6A581C086218780B685860C88CD4
:1045A000401E80B2C88458B90868C06820F08000F6
:1045B0000B68D8600868C06840F040000B68D8609D
:1045C000002070470220FCE72DE9F04104460D462B
:1045D00017469846069E21E0701CF8B12EB1FDF7F3
:1045E0002BF8A0EB0800B04218D92068C06820F46E
:1045F000D0702168C8602068406920F001002168FF
:104600004861202084F8390084F83A0000BF002077
:1046100084F8380000BF0320BDE8F08120680068FE
:104620002840A84201D1012000E00020B842D3D0A8
:104630000020F1E710B50248FEF742FB10BD000074
:104640008809002010B50248FEF73AFB10BD0000B3
:10465000C809002000BFFEE702E008C8121F08C119
:10466000002AFAD170477047002001E001C1121FF3
:10467000002AFBD17047FDF7EBF8FFF75FFCFFF76F
:1046800013F8FEF7EFFFFFF7CBF8FFF76FF9FFF72F
:10469000FFF8FFF735F9FFF785F9FFF767F8FFF740
:1046A00083F8FBF779FF01E0FBF7DAFDFCE7000098
:1046B00000000000000001020304060708090000D2
:1046C0000000010203040000E8460008000000208A
:1046D00038010000900100086447000838010020FC
:1046E000780D000068460008013C2208130168129A
:1046F00061127A5A6502021D6D100BA503010101BA
:104700001603080D2D1C02010209130E1E3A03099F
:10471000130F2D1B5A5A501A0102120212031204CF
:10472000120512061A071229141209121012111278
:10473000121213121412151A161412031217121849
:1047400012191220122112221223021024196909AF
:104750001401012E4355551A0284412A105941046F
:0447600000A24A0465
:04000005080000ED02
:00000001FF
